{
  "contractName": "Greeter",
  "abi": [
    {
      "anonymous": false,
      "inputs": [
        {
          "indexed": true,
          "internalType": "address",
          "name": "previousOwner",
          "type": "address"
        },
        {
          "indexed": true,
          "internalType": "address",
          "name": "newOwner",
          "type": "address"
        }
      ],
      "name": "OwnershipTransferred",
      "type": "event"
    },
    {
      "inputs": [],
      "name": "owner",
      "outputs": [
        {
          "internalType": "address",
          "name": "",
          "type": "address"
        }
      ],
      "stateMutability": "view",
      "type": "function"
    },
    {
      "inputs": [],
      "name": "renounceOwnership",
      "outputs": [],
      "stateMutability": "nonpayable",
      "type": "function"
    },
    {
      "inputs": [
        {
          "internalType": "address",
          "name": "newOwner",
          "type": "address"
        }
      ],
      "name": "transferOwnership",
      "outputs": [],
      "stateMutability": "nonpayable",
      "type": "function"
    },
    {
      "inputs": [],
      "name": "greet",
      "outputs": [
        {
          "internalType": "string",
          "name": "",
          "type": "string"
        }
      ],
      "stateMutability": "view",
      "type": "function"
    },
    {
      "inputs": [
        {
          "internalType": "string",
          "name": "greeting",
          "type": "string"
        }
      ],
      "name": "setGreeting",
      "outputs": [],
      "stateMutability": "nonpayable",
      "type": "function"
    }
  ],
  "bytecode": "0x60806040526040518060400160405280600d81526020017f48656c6c6f2c20576f726c6421000000000000000000000000000000000000008152506001908051906020019061004f92919061014a565b5034801561005c57600080fd5b5061007961006e61007e60201b60201c565b61008660201b60201c565b61024e565b600033905090565b60008060009054906101000a900473ffffffffffffffffffffffffffffffffffffffff169050816000806101000a81548173ffffffffffffffffffffffffffffffffffffffff021916908373ffffffffffffffffffffffffffffffffffffffff1602179055508173ffffffffffffffffffffffffffffffffffffffff168173ffffffffffffffffffffffffffffffffffffffff167f8be0079c531659141344cd1fd0a4f28419497f9722a3daafe3b4186f6b6457e060405160405180910390a35050565b828054610156906101ed565b90600052602060002090601f01602090048101928261017857600085556101bf565b82601f1061019157805160ff19168380011785556101bf565b828001600101855582156101bf579182015b828111156101be5782518255916020019190600101906101a3565b5b5090506101cc91906101d0565b5090565b5b808211156101e95760008160009055506001016101d1565b5090565b6000600282049050600182168061020557607f821691505b602082108114156102195761021861021f565b5b50919050565b7f4e487b7100000000000000000000000000000000000000000000000000000000600052602260045260246000fd5b6107b08061025d6000396000f3fe608060405234801561001057600080fd5b50600436106100575760003560e01c8063715018a61461005c5780638da5cb5b14610066578063a413686214610084578063cfae3217146100a0578063f2fde38b146100be575b600080fd5b6100646100da565b005b61006e6100ee565b60405161007b91906105f3565b60405180910390f35b61009e600480360381019061009991906104c0565b610117565b005b6100a8610135565b6040516100b5919061060e565b60405180910390f35b6100d860048036038101906100d39190610497565b6101c7565b005b6100e261024b565b6100ec60006102c9565b565b60008060009054906101000a900473ffffffffffffffffffffffffffffffffffffffff16905090565b61011f61024b565b818160019190610130929190610395565b505050565b606060018054610144906106f1565b80601f0160208091040260200160405190810160405280929190818152602001828054610170906106f1565b80156101bd5780601f10610192576101008083540402835291602001916101bd565b820191906000526020600020905b8154815290600101906020018083116101a057829003601f168201915b5050505050905090565b6101cf61024b565b600073ffffffffffffffffffffffffffffffffffffffff168173ffffffffffffffffffffffffffffffffffffffff16141561023f576040517f08c379a000000000000000000000000000000000000000000000000000000000815260040161023690610630565b60405180910390fd5b610248816102c9565b50565b61025361038d565b73ffffffffffffffffffffffffffffffffffffffff166102716100ee565b73ffffffffffffffffffffffffffffffffffffffff16146102c7576040517f08c379a00000000000000000000000000000000000000000000000000000000081526004016102be90610650565b60405180910390fd5b565b60008060009054906101000a900473ffffffffffffffffffffffffffffffffffffffff169050816000806101000a81548173ffffffffffffffffffffffffffffffffffffffff021916908373ffffffffffffffffffffffffffffffffffffffff1602179055508173ffffffffffffffffffffffffffffffffffffffff168173ffffffffffffffffffffffffffffffffffffffff167f8be0079c531659141344cd1fd0a4f28419497f9722a3daafe3b4186f6b6457e060405160405180910390a35050565b600033905090565b8280546103a1906106f1565b90600052602060002090601f0160209004810192826103c3576000855561040a565b82601f106103dc57803560ff191683800117855561040a565b8280016001018555821561040a579182015b828111156104095782358255916020019190600101906103ee565b5b509050610417919061041b565b5090565b5b8082111561043457600081600090555060010161041c565b5090565b60008135905061044781610763565b92915050565b60008083601f84011261045f57600080fd5b8235905067ffffffffffffffff81111561047857600080fd5b60208301915083600182028301111561049057600080fd5b9250929050565b6000602082840312156104a957600080fd5b60006104b784828501610438565b91505092915050565b600080602083850312156104d357600080fd5b600083013567ffffffffffffffff8111156104ed57600080fd5b6104f98582860161044d565b92509250509250929050565b61050e8161068c565b82525050565b600061051f82610670565b610529818561067b565b93506105398185602086016106be565b61054281610752565b840191505092915050565b600061055a60268361067b565b91507f4f776e61626c653a206e6577206f776e657220697320746865207a65726f206160008301527f64647265737300000000000000000000000000000000000000000000000000006020830152604082019050919050565b60006105c060208361067b565b91507f4f776e61626c653a2063616c6c6572206973206e6f7420746865206f776e65726000830152602082019050919050565b60006020820190506106086000830184610505565b92915050565b600060208201905081810360008301526106288184610514565b905092915050565b600060208201905081810360008301526106498161054d565b9050919050565b60006020820190508181036000830152610669816105b3565b9050919050565b600081519050919050565b600082825260208201905092915050565b60006106978261069e565b9050919050565b600073ffffffffffffffffffffffffffffffffffffffff82169050919050565b60005b838110156106dc5780820151818401526020810190506106c1565b838111156106eb576000848401525b50505050565b6000600282049050600182168061070957607f821691505b6020821081141561071d5761071c610723565b5b50919050565b7f4e487b7100000000000000000000000000000000000000000000000000000000600052602260045260246000fd5b6000601f19601f8301169050919050565b61076c8161068c565b811461077757600080fd5b5056fea264697066735822122009eab003604e36e5f4118c74a69b558763bb8edecb8172b5f87b6bb7c7ff943864736f6c63430008000033",
  "immutableReferences": {},
  "source": "pragma solidity >= 0.8.0;\n\nimport \"@openzeppelin/contracts/access/Ownable.sol\";\n\n\ncontract Greeter is Ownable {\n\tstring private _greeting = \"Hello, World!\";\n\t// address private _owner;\n\n\t// modifier onlyOwner() {\n\t// \trequire(\n\t// \t\tmsg.sender == _owner,\n\t// \t\t\"Ownable: caller is not the owner\"\n\t// \t);\n\t// \t_;\n\t// }\n\n\t// constructor() public {\n\t// \t_owner = msg.sender;\n\t// }\n\n\tfunction greet() external view returns(string memory) {\n\t\treturn _greeting;\n\t}\n\n\tfunction setGreeting(string calldata greeting) external onlyOwner {\n\t\t_greeting = greeting;\n\t}\n\n\t// function owner() public view returns(address) {\n\t// \treturn _owner;\n\t// }\n}",
  "sourcePath": "/Users/subaru/dev_2023/greeter_eth/contracts/Greeter.sol",
  "compiler": {
    "name": "solc",
    "version": "0.8.0+commit.c7dfd78e.Emscripten.clang"
  },
  "schemaVersion": "3.4.15",
  "updatedAt": "2023-08-15T22:59:51.522Z",
  "devdoc": {
    "kind": "dev",
    "methods": {
      "owner()": {
        "details": "Returns the address of the current owner."
      },
      "renounceOwnership()": {
        "details": "Leaves the contract without owner. It will not be possible to call `onlyOwner` functions. Can only be called by the current owner. NOTE: Renouncing ownership will leave the contract without an owner, thereby disabling any functionality that is only available to the owner."
      },
      "transferOwnership(address)": {
        "details": "Transfers ownership of the contract to a new account (`newOwner`). Can only be called by the current owner."
      }
    },
    "version": 1
  },
  "userdoc": {
    "kind": "user",
    "methods": {},
    "version": 1
  }
}